:020000040800F2
:10000000E883002071020008FB200008251F00087B
:10001000F9200008090700083D3900080000000029
:10002000000000000000000000000000692200083D
:100030008907000800000000B12100086B220008B9
:100040008B0200088B0200088B0200088B0200085C
:100050008B0200088B0200088B0200088B0200084C
:100060008B0200088B0200088D0700088B02000835
:100070008B0200088B0200088B0200088B0200082C
:100080008B0200088B0200088B0200088B0200081C
:100090008B0200088B0200088B0200088B0200080C
:1000A0008B020008692300088B0200088B020008FD
:1000B0008B0200088B0200088B0200088B020008EC
:1000C0008B0200088B0200088B0200088B020008DC
:1000D0008B0200088B0200088B0200088B020008CC
:1000E0008B0200088B0200088B0200088B020008BC
:1000F0008B0200088B0200088B0200088B020008AC
:100100008B0200088B0200088B0200088B0200089B
:100110008B0200088B0200088B0200088B0200088B
:100120008B0200088B0200088B0200088B0200087B
:100130008B0200088B0200088B0200088B0200086B
:100140008B0200088B0200088B0200081D210008AA
:100150008B0200088B0200088B0200088B0200084B
:100160008B0200088B0200088B0200088B0200083B
:100170008B0200088B0200088B02000800000000C0
:100180008B0200088B02000800F002F800F060F813
:100190000AA090E8000C82448344AAF10107DA45E2
:1001A00001D100F055F8AFF2090EBAE80F0013F0D4
:1001B000010F18BFFB1A43F001031847E05200007B
:1001C000005300000A444FF0000C10F8013B13F0FC
:1001D000070408BF10F8014B1D1108BF10F8015BA0
:1001E000641E05D010F8016B641E01F8016BF9D193
:1001F00013F0080F1EBF10F8014BAD1C0C1B09D1EA
:100200006D1E58BF01F801CBFAD505E014F8016B5B
:1002100001F8016B6D1EF9D59142D6D370470000ED
:100220000023002400250026103A28BF78C1FBD8FF
:10023000520728BF30C148BF0B6070471FB504F09C
:10024000EDFB9DE8030000F081F91FBD10B510BD66
:1002500000F0D8F91146FFF7F1FF04F00FF800F0B5
:10026000F6F903B4FFF7F2FF03BC00F027FA000031
:100270000948804709480047FEE7FEE7FEE7FEE73A
:10028000FEE7FEE7FEE7FEE7FEE7FEE70448054976
:10029000054A064B70470000152300088901000835
:1002A000E8230020E8830020E8430020E843002002
:1002B00070B5064600F02EF9056806F10B0020F037
:1002C0000704B4429CBF002070BD2B466A68BAB1D7
:1002D0001068A04210D304F1080188423CBF506866
:1002E000586007D35168101941601168091B0160FB
:1002F00058601460101D70BD13465268002AE7D183
:100300002146284600F00EF90028DED170BD70B5F8
:100310000446051F00F0FEF80068002C14BF446876
:1003200070BD002C18BFAC423CBF20466468F8D3B7
:1003300001680A18AA4218BF456003D12A68054619
:100340001144016028684119A1421CBF6C6070BD56
:100350006168696021680844286070BD53EA020C36
:1003600000F069802DE9F04B4FF00006002B1FBF15
:10037000B3FA83F503FA05F424FA05F65E4012BFDA
:100380001643B2FA82F502FA05F4C5F120051EBF44
:1003900022FA05FC44EA0C04203556EA044C4FEAE4
:1003A000144418BF641C4FF000084FF0000990423D
:1003B00071EB030C39D3002919BFB1FA81F701FAA7
:1003C00007F6B0FA80F700FA07F6C7F120071EBF5C
:1003D00020FA07FC46EA0C062037B6FBF4FCA7EB34
:1003E0000507103F07F01F0BCBF120060CFA0BFBA3
:1003F0002CFA06F644BFB3460026202FA4BF5E4663
:100400004FF0000B5BEA060C08BF4FF0010B19EB35
:100410000B09ABFB027C48EB0608C01B06FB02CCB9
:100420000BFB03CC71EB0C01C1E70B4602464146C6
:100430004846BDE8F08B13B54FF000004FF00001C7
:10044000AFF30080BDE81C40704740EA010302465C
:1004500030B59B0710D14FF0013400E008C208C945
:100460001D1B9D4315EAC41FF8D013F0FF0102F8CD
:10047000011B0DD01B0AF8E711F8013B002B02F815
:10048000013B05D011F8013B002B02F8013BF3D1F1
:1004900030BD421E12F8013F002BFBD111F8013B89
:1004A000002B02F8013BF9D1704710B5203AC0F09B
:1004B0000B80B1E81850203AA0E81850B1E8185065
:1004C000A0E81850BFF4F5AF5FEA027C24BFB1E8A2
:1004D0001850A0E8185044BF18C918C0BDE8104013
:1004E0005FEA827C24BF51F8043B40F8043B08BF1C
:1004F0007047D20728BF31F8023B48BF11F8012BE3
:1005000028BF20F8023B48BF00F8012B7047704716
:10051000704770470048704790230020704770472D
:100520007047704738B504460A4600206946AFF365
:100530000080002808BF38BD02460099204600F020
:100540003FF8012038BD012000F054B8F8B5AFF3F2
:100550000080054600200C46102000BF0646A81962
:10056000A0420DD9324669460020AFF30080070053
:1005700008BF00F03FF80098A04218BF0546C41914
:10058000FFF7C8FF05600746F01D20F00700461979
:10059000284600F00AF8B44208BFF8BDA21B314655
:1005A0003868BDE8F84000F00BB800210160C0E9F0
:1005B00001107047102070470048704788230020C2
:1005C000034640688C46002818BF88423CBF03465B
:1005D0004068F8D318681844884207D00CF103002B
:1005E00020F00700001D411A521A0146081D0A603A
:1005F000FFF78DBE10B500F039F8BDE8104000F0EF
:100600002FB870477546FFF7D7FFAE46050069461D
:10061000534620F00700854618B020B5FFF736FE98
:10062000BDE820404FF000064FF000074FF00008F3
:100630004FF0000B21F00701AC46ACE8C009ACE874
:10064000C009ACE8C009ACE8C0098D46704710B5D8
:100650000446AFF300802046BDE81040FFF701BE1E
:10066000002801D000F02AB87047000010B501281A
:1006700005D0002103A000F027F8012010BD09A13A
:10068000F8E7000053494752544D454D3A204F7505
:1006900074206F662068656170206D656D6F72797A
:1006A000000000003A2048656170206D656D6F7232
:1006B0007920636F72727570746564000149182047
:1006C000ABBEFEE72600020070B505460C460A20C8
:1006D00000E06D1C00F011F835B128780028F8D141
:1006E00002E0641C00F009F814B120780028F8D169
:1006F000BDE870400A20AFF3008008B569468DF868
:1007000000000320ABBE08BDFEE7002070470020BC
:100710007047000010B500220449054801F06CFF45
:100720000449034801F062FF002010BD840D002041
:10073000841700208405002010B501782129014686
:10074000064808D0FFF7A5FEBDE810404FF48051E1
:10075000034800F02FB9FFF778FEF5E7F01A002004
:10076000000C024070B50D4604460146054801F0F4
:100770003DFF044801F01EFF20462968FFF7DCFF1B
:10078000002070BD841700207047000009480068F1
:10079000406A094940F68C23086008490A68821AB1
:1007A0009A4204D9064A13685B1C13600860102043
:1007B00000F01CB8B41A002064000020680000207B
:1007C0005C00002070B5044600F0FEF80546601C91
:1007D00002D004480078044400F0F6F8401BA04220
:1007E000FAD370BD8801002070470000044910B59D
:1007F0000A68024202D00860FFF7F6FF10BD000051
:10080000143C01402DE9F84FDFF87CB100224FF095
:1008100001084FF0030A4FF00F090BF1040E00BF5F
:100820000B6808FA02F42340A3426ED14D68022DF2
:1008300001D0122D0ED1D50800EB850CDCF820502C
:100840005607F70E09FA07F6B5430E69BE402E4368
:10085000CCF82060066855000F790AFA05FC07F00D
:10086000030726EA0C06AF40374307604E68012EA7
:1008700005D0022E03D0112E01D0122E0ED1866883
:10088000CF6826EA0C06AF40374387604668A64328
:100890000C79C4F30014944034434460C6688C68F7
:1008A00026EA0C06AC403443C4604C68E40065D5CD
:1008B000364C256845F480452560246822F0030500
:1008C00004F480440094324C2E19D6F80848950759
:1008D0002F0F09FA07F5AC432E4DA84201D1002590
:1008E00024E02D4DA84201D101251FE02B4DA84247
:1008F00001D102251AE02A4DA84201D1032515E0B5
:10090000284DA84202D1042510E037E0264DA84228
:1009100001D105250AE0254DA84201D1062505E0B3
:10092000234DA84201D1072500E00825BD402543FD
:10093000C6F80858DBF800405D464E689C43F60355
:1009400000D51C432C60DEF8004075464E689C4381
:10095000B60300D51C432C600B4D08352C684E683F
:100960009C43F60200D51C432C60074D0C352C68C7
:100970004E689C43B60200D51C432C60521C102AC2
:10098000FFF44EAFBDE8F88F003C01404438024010
:100990000030014000000240000402400008024014
:1009A000000C0240001002400014024000180240F7
:1009B000001C024042694A40426170470AB18161AD
:1009C00070470904FBE70000014880687047000099
:1009D00088010020024881680278114481607047D4
:1009E000880100200B4810B5016841F400710160D6
:1009F000016841F480610160016841F48071016027
:100A0000032000F081F8002000F006F800F024F840
:100A1000002010BD003C024070B50D4D04464FF45F
:100A20007A712878B1FBF0F00A490968B1FBF0F05F
:100A300001F0A5F848B9102C07D200222146501E1B
:100A400000F042F800206C6070BD012070BD000015
:100A5000880100206C00002010B5032000F054F83D
:100A6000002211466FF00B0000F02EF80022114614
:100A70006FF00A0000F028F8002211466FF009001C
:100A800000F022F800221146501F00F01DF800224D
:100A90001146101F00F018F800221146901E00F0B9
:100AA00013F80022BDE810401146501E00F00CB8AB
:100AB00000F01F02012191404009800000F1E02078
:100AC000C0F8001170470000F0B40E4B1B680C46D4
:100AD000C3F30223C3F10705042D00D90425191D12
:100AE000072901D2002300E0DB1E012606FA05F1EA
:100AF000491E214099409E40761E16403143F0BC6D
:100B000001F0FCBA0CED00E0064900F007020868AD
:100B10004FF6FF03184040EA0220034A10430860E2
:100B2000704700000CED00E00000FA05006841622B
:100B300000207047F0B500680023446A31B1856A2F
:100B40004FF4827604EB15444D1E0AE044EA02415C
:100B500081620FE006EB8307C7595B1C04EB174467
:100B6000DBB2AB42F6DB4FF4807303EB810144EA66
:100B7000024242500020F0BDD0F8EC0301F08CBFDF
:100B8000C1EBC10200EB8202D0F8EC03526C01F021
:100B9000F9BEC1EBC10200EB8202D0F8EC03D2F83F
:100BA000042201F044BFD0F8EC0301F077BF10B588
:100BB00004460A460B0601F07F00C0EBC00104EBBF
:100BC000810101D5383101E001F5FC710870D009CF
:100BD000487094F8B803012809D0012084F8B803BC
:100BE000206802F09DFA002084F8B80310BD0220AE
:100BF00010BD70B50A460446090602F07F0005D50F
:100C0000C0EBC00104EB8101383105E0C2EBC20149
:100C100004EB810101F5FC7100258D700870D0098D
:100C2000487094F8B803012809D0012084F8B8036B
:100C3000206802F056FC84F8B853002070BD0220F2
:100C400070BD01F00F01C1EBC10100EB8100B0F8F4
:100C5000100280B2704770B504460D460E0601F0D2
:100C60007F00C0EBC00104EB810101D5383101E008
:100C700001F5FC71ED0908704D708A60CB7000D0F1
:100C8000C8800025022B00D10D7194F8B80301280B
:100C900009D0012084F8B803206802F095F92846AD
:100CA00084F8B85370BD022070BD70B50C4601F0D9
:100CB0007F05C5EBC50100EB8101C1F80C32C1F81D
:100CC00004220023C1F8103281F8F93181F8F8517B
:100CD000036901F5FC71012B00D10A616206027CF7
:100CE000006803D002F05EFC002070BD02F03AFB09
:100CF000FAE770B50D460446090605F07F0005D5F4
:100D0000C0EBC00104EB8101383105E0C5EBC50142
:100D100004EB810101F5FC7101228A700870E80979
:100D2000487094F8B803012807D084F8B8232068E5
:100D300002F009FC680602D007E0022070BD217CA9
:100D400004F56F72206802F0ADFB002084F8B80350
:100D500070BD70B50C4601F07F05C5EBC50100EB19
:100D60008101CB644A6400230B65012381F839308B
:100D700001F8385F0369012B00D10A616206027C29
:100D8000006803D002F00EFC002070BD02F0EAFA09
:100D9000FAE700002DE9F84F0446006800260546F2
:100DA00002F054FD002875D1206802F078FD00287B
:100DB00070D0206802F073FD800704D52068416977
:100DC00001F002014161206802F069FD010304F5B0
:100DD0006F704FF0010B4FF0000A00904DD5206866
:100DE00002F03FFD074646E0F80742D0F1B2206826
:100DF00002F04DFD8046C00728D005EB4612C2F830
:100E000008BB2069012811D1C6EBC60004EB8001A4
:100E1000D2F8102BD1F80002C2F31202821AC1F8E4
:100E20001022D1F804221044C1F80402F1B2204685
:100E3000FFF7AFFE2069012808D13EB9D4F80C02B3
:100E400020B920680121009A02F02CFB5FEA0870AB
:100E500007D5204600F0DCFA05EB46110820C1F862
:100E6000080B5FEAC86004D505EB46111020C1F8F5
:100E7000080B7F08761C002FB6D1206802F00FFD0A
:100E800040034FF040095ED5206802F0E3FC0746BE
:100E9000002656E0D2E1F80751D0F1B2206802F006
:100EA000E7FC8046C00724D0D5F834280BFA06F0BA
:100EB0008243C5F8342805EB4610C0F808B920690C
:100EC000012807D1C6EBC60004EB8000D0E9101260
:100ED00011444164F1B22046FFF752FE2069012817
:100EE00007D136B9E06C20B920680121009A02F0E0
:100EF000D9FA5FEA087004D505EB46110820C1F85D
:100F000008095FEAC86004D505EB46111020C1F856
:100F100008095FEA486003D505EB4611C1F8089956
:100F20005FEA887004D505EB46110220C1F8080974
:100F30005FEA086003D53146204601F0F5F87F08E6
:100F4000761C002FA7D1206802F0A9FC00280DDA3A
:100F5000D5F8040820F00100C5F80408204600F088
:100F60003DFA2168486900F000404861206802F0BD
:100F700096FC00050BD5D5F80808C00702D020461E
:100F800000F062FA2068416901F400614161206863
:100F900002F085FCC0044CD5D5F8040820F001000F
:100FA000C5F804081021206802F020FC0020FF2171
:100FB00007E000BF05EB4012C2F80819C2F8081B91
:100FC000401C62688242F5D84FF0FF30C5F818081F
:100FD000D5F81C0840F00110C5F81C08206B60B162
:100FE000D5F8840840F00B00C5F88408D5F844080B
:100FF00040F00B00C5F844080BE0D5F8140840F0A9
:101000000B00C5F81408D5F8100840F00B00C5F81F
:101010001008D5F8000820F4FE60C5F80008217C0F
:101020002068009A02F03EFA2168486900F4805076
:101030004861206802F033FC80047DD5206802F00E
:1010400003F82068C16821F47051C160206802F083
:10105000DFFB78B10320C4F81490E06000F0A4FA3C
:101060007749784A014491420AD22068C16841F424
:10107000705158E04FF40070C4F80CA0606136E085
:101080007149724A0144914204D22068C16841F416
:10109000605148E06E496F4A0144914204D2206891
:1010A000C16841F450513EE06B496C4A01449142A1
:1010B00004D22068C16841F4405134E06849694A6B
:1010C0000144914204D22068C16841F430512AE0C1
:1010D0006549664A0144914204D22068C16841F4DE
:1010E000205120E06249421862498A4204D22068B5
:1010F000C16841F4105116E05F49604A01449142D1
:1011000004D22068C16841F400510CE05C490844F5
:101110005C4988422068C16803D241F4E05102E092
:101120000AE041F4C051C160204600F047F9206850
:10113000416901F400514161206802F0B0FBC00632
:1011400036D52168886920F010008861D5F82080A4
:1011500008F00F00C0EBC00004EB8007C8F3434069
:1011600007F5FC77022802D0062812D01BE047F6CC
:10117000F07018EA000F16D0C8F30A1290462846FD
:10118000F96802F090FBF8684044F860B8694044A0
:1011900008E008222846009902F085FBB969C8F3E7
:1011A0000A100844B8612068816941F0100181612A
:1011B000206802F074FB000707D5204600F012F902
:1011C0002068416901F008014161206802F067FB75
:1011D000C00208D5F1B2204600F056F820684169F7
:1011E00001F480114161206802F059FB800208D5AA
:1011F000F1B2204600F04CF82068416901F400117A
:101200004161206802F04BFB400007D52046FFF704
:10121000B3FC2068416901F080414161206802F01F
:101220003EFB40070AD520684568680702D520467E
:10123000FFF7B9FC2068416829434160BDE8F88F99
:10124000405327FF00350C00401E1BFF40420F009B
:1012500000DC0BFF804F1200808CF9FE20D61300BB
:1012600060B6E5FE60E3160000D3CEFE40771B00BB
:10127000C05BB3FEC091210000CA91FE207538000A
:10128000E05459FEE09C4100D0F8EC0301F064BC4E
:10129000D0F8EC0301F062BCF0B58BB004004FF065
:1012A000000556D0032084F8B903204600F054F816
:1012B000206802F051F804F1100128220F46684618
:1012C000FFF7F3F894E80F0001F0D8FE0021206842
:1012D00002F0F9FA01260020C5EBC50104EB8101FB
:1012E00081F8396001F8385FCD80C8708860C860C7
:1012F0006D1C48610F2DEFD300214FF4827300BFA6
:10130000C1EBC10204EB820203EB810582F8F90113
:1013100082F8F811D18782F8FB01C2F80002C2F806
:101320000402C2F80C0222685051491C0F29E7D36D
:10133000282239466846FFF7B8F894E80F0001F014
:101340006BFF84F8B963206801F05AFF00200BB0EE
:10135000F0BD0120FBE7000000B5006887B0B0F1E8
:10136000A04F25D14FF4C0500090022001900020E2
:101370000290032003900A20049069460D48FFF76D
:1013800041FA0D48016841F0800101600A481030BF
:10139000016841F4804101600068002200F480404F
:1013A000059011464320FFF78FFB4320FFF780FB9A
:1013B00007B000BD000002403438024010B50446BA
:1013C000C068012100B90021D4F8EC0301F01CFC35
:1013D000D4F8EC03BDE8104001F0E5BBD0F8EC0315
:1013E00001F000BCD0F8EC0301F002BC10B50446DB
:1013F00090F8B803012809D0012084F8B8032068C8
:1014000002F077FA002084F8B80310BD022010BD66
:10141000D0F8EC2300F56F71104601F008BC10B550
:10142000044690F8B80301280CD0012084F8B803D2
:10143000206801F0D9FE206802F0C2F9002084F88B
:10144000B80310BD022010BD10B50446D0F8EC035F
:1014500001F03AFC2068D0F8001E41F00101C0F80C
:10146000001E206A002804D00248016841F00601ED
:10147000016010BD10ED00E02DE9F0470E460500BB
:1014800065D0DFF81481D8F80000F7B200F00F0043
:10149000B04207D288F80070D8F8000000F00F00C2
:1014A000B04254D128683D4C810712D5400703D57E
:1014B000206840F4E05020602878000703D52068B9
:1014C00040F4604020602068A96820F0F0000843E4
:1014D00020602878C0072DD0304968680839012875
:1014E00012D0022813D0032811D0096889070029D7
:1014F0002DDA216821F0030101432160FFF764FA2E
:10150000814641F2883A0EE009688903EFE70968ED
:101510008901ECE7FFF758FAA0EB0901514502D920
:101520000320BDE8F0872068696800F00C00B0EB8C
:10153000810FEFD1D8F80010404601F00F01B14201
:1015400007D90770006800F00F00B04201D00120F9
:10155000E7E72878400705D52068E96820F4E050DF
:10156000084320602878000706D52068296920F400
:10157000604040EAC100206000F01CF82168084A81
:10158000C1F30311515CC840064908600020FFF711
:1015900043FA0020C5E70000003C02400838024042
:1015A0008A5400086C000020014800687047000061
:1015B0006C000020154810B5006810F00C021448AB
:1015C00013D04110042A0FD0082A0ED10F4C241F2B
:1015D0002268236802F03F025B0207D52068C0F34F
:1015E0008810A0FB010106E0084610BD2168C1F388
:1015F0008811A1FB00010023FEF7B0FE2168C1F3B2
:101600000141491C4900B0FBF1F010BD083802400F
:101610000024F4002DE9F84F050076D02878DFF893
:10162000F8B2BE4CC00749D0DBF800105846C1F3F1
:101630008101012908D00068C0F3810002280AD185
:10164000201D0068400206D52068800336D56868F2
:101650000028E2D032E06868B0F5803F10D0B0F5E5
:10166000A02F206810D020F480302060206820F463
:10167000802020606868A0B1FFF7A6F906460CE05C
:10168000206840F48030F4E740F480202060F7E7E1
:10169000FFF79AF9801B642873D820688003F7D578
:1016A0000CE0FFF791F9064605E000BFFFF78CF963
:1016B000801B6428F0D820688003F7D42878DFF8EE
:1016C000608280074FF000093ED5DBF800105846D5
:1016D00011F00C0F09D00068C0F3810002280BD173
:1016E0008D48001F0068400206D42068800715D589
:1016F000E868012809D111E0E868B8B10120C8F80C
:101700000000FFF761F9064605E002E1FFF75CF92A
:10171000801B0228C0D820688007F7D52068296977
:1017200020F0F80040EAC10020600DE0C8F8009009
:10173000FFF74AF9064604E0FFF746F9801B022846
:101740001FD820688007F7D42878000722D5724E6A
:10175000744869696C3671B101210160FFF734F991
:10176000074604E0FFF730F9C01B022809D83068AB
:101770008007F7D50EE0C0F80090FFF725F907467F
:1017800005E083E0FFF720F9C01B02287ED830680F
:101790008007F7D42878400768D5DFF87CA10027B8
:1017A0000AF1380ADAF80000C0000BD4DAF80010A9
:1017B00041F08051CAF80010DAF80000012700F06B
:1017C00080500090584E3068C00510D4306840F406
:1017D00080703060FFF7F8F8009005E0FFF7F4F84C
:1017E0000099401A022851D83068C005F6D54A4EF3
:1017F000A868683601280FD00528306810D020F07E
:1018000001003060306820F004003060A868B8B192
:10181000FFF7DAF800900FE0306840F00100F4E7DD
:1018200040F004003060F7E7FFF7CEF80099411A66
:1018300041F28830814264D830688007F4D50EE0E8
:10184000FFF7C2F8009007E0FFF7BEF80099411AD1
:1018500041F28830814254D830688007F4D42FB1E7
:10186000DAF8001021F08051CAF80010A869C0B35E
:10187000DBF80010C1F3810102294AD00228484652
:1018800007D0C8F86000FFF79FF800E039E0054690
:101890003AE04746C8F86000FFF796F8064604E0CD
:1018A000FFF792F8801B02282BD820688001F7D41C
:1018B000D5E907010843A96A1C4A490802EB01411E
:1018C0006A6A41EA8211084395F82C1040EA0161E6
:1018D0001148001F016001203866FFF775F80546C2
:1018E00005E014E0FFF770F8401B022809D82068D3
:1018F0008001F7D50BE000BFFFF766F8401B022818
:1019000002D90320BDE8F88F20688001F4D40020BC
:10191000F8E70120F6E700000838024000380240EE
:1019200000004742800E4742007000400000FFFF69
:1019300070B5040005D00025A56294F8510010B1DF
:1019400006E0012070BD84F85050204600F030F8C9
:10195000022084F851002068016821F040010160F4
:10196000D4E901010843D4E9031211430843616932
:101970000843218B01F400710843E1690843216A9F
:101980000843A16A084321680860A069042101EAAC
:101990001040616A0843216848602068C16921F4E9
:1019A0000061C1616565012084F85100002070BDAF
:1019B00000B500680E4987B0884216D10D48002155
:1019C000026842F480520260006800F48050059082
:1019D000A02000900220CDE9010103200390052002
:1019E000049069460448FEF70DFF07B000BD0000F3
:1019F0000030014044380240000002402DE9F84F19
:101A0000044690F850000026994617460D460128D6
:101A10000DD04FF0010B84F850B0FEF7D5FF804693
:101A200094F85100B246012804D0022694E0022026
:101A3000BDE8F88F002D7BD0002F79D0032084F8EB
:101A40005100C4F854A02563A786E786C4F838A0DF
:101A5000A4F83CA0A4F83EA0C4F844A0C4F840A058
:101A6000A068B0F5004F04D12068016841F48041BE
:101A7000016020680168490603D4016841F0400113
:101A80000160E068B0F5006F606804D030B3E08EAC
:101A9000012823D03EE010B1E08E01281AD135F89C
:101AA000021B206805E020688168890706D535F8A3
:101AB000021BC160E08E401EE0860BE0B9F1000F12
:101AC00034D0B9F1FF3F05D0FEF77EFFA0EB08014F
:101AD00049452BD2E08E0028E5D11EE0216815F89B
:101AE000010B087306E020688168890706D515F8A0
:101AF000011B0173E08E401EE0860BE0B9F1000F80
:101B000014D0B9F1FF3F05D0FEF75EFFA0EB08014E
:101B100049450BD2E08E0028E5D14B460122022137
:101B20002046CDF8008000F054FB10B1032613E0EE
:101B300011E042464946204600F03BFB18B1012621
:101B40002020606508E0A06818B92068C168806836
:101B50000090606D00B1012684F851B084F850A067
:101B6000304665E74FF0E0210428086903D020F0F3
:101B700004000861704740F00400FAE7704710B5B0
:101B8000401EB0F1807F01D3012010BD4FF0E02452
:101B900060610F21601700F0B1FA0020A0610720FA
:101BA0002061002010BD10B5FFF7E8FF10BD7047A1
:101BB000704730B590F83820012A20D0012280F8F3
:101BC0003820022380F8393003685C6824F0700400
:101BD0005C6003685C680D682C435C6003689C680B
:101BE00024F080049C6003689C6849680C439C60F6
:101BF00080F83920002180F83810084630BD0220D6
:101C000030BD10B5040003D094F8390010B107E0DE
:101C1000012010BD002084F83800204600F00CF8A8
:101C2000022084F83900211D206800F0ABFB012060
:101C300084F83900002010BD08B500680B498842BF
:101C400012D10B48016841F40031016000680022A4
:101C500000F40030009011461920FEF735FFBDE872
:101C600008401920FEF724BF08BD000000440140D1
:101C7000443802400168CA6842F00102CA60006844
:101C8000016841F001010160002070472DE9F04139
:101C90000D46040003D094F8390018B108E0012083
:101CA000BDE8F081002084F83800204600F03AF8C2
:101CB000022084F839002068816821F007018160E2
:101CC000211D206800F05EFB226890689169166A09
:101CD0002B68AF69034340F20330814341EA072197
:101CE000A868EF6908434FF6FC418843E96840EA79
:101CF0000720014328692F6A000140EA07300843A2
:101D000069686D6926F0AA0646EA051529439360BD
:101D10002268906120680162012084F83900002067
:101D2000BEE7000000B50068124987B088421ED1A6
:101D300011480021026842F001020260006800F0D0
:101D4000010005904FF4206000900220CDE90101D0
:101D50000120CDE9031069460848FEF753FD002233
:101D600011461920FEF7B0FE1920FEF7A1FE07B0BC
:101D700000BD000000000140443802400010024055
:101D800010B50446006891B1042904D00122002155
:101D900000F058FB206801225FF0040100F052FBC4
:101DA0002068016841F001010160002010BD01229E
:101DB0000021F3E7704770B50446006801694FF0F1
:101DC0000005C943890715D4C168C943890711D4DF
:101DD000E91E016101202076206880698007204685
:101DE00002D0FFF7E7FF04E000F098F8204600F08B
:101DF00096F8257620680169C943490717D4C16858
:101E0000C943490713D46FF0040101610220207611
:101E10002068806910F4407F204602D0FFF7CAFF97
:101E200004E000F07BF8204600F079F82576206881
:101E30000169C943090716D4C168C943090712D407
:101E40006FF008010161042020762068C0698007D6
:101E5000204602D0FFF7AEFF04E000F05FF8204616
:101E600000F05DF8257620680169C943C90617D4DA
:101E7000C168C943C90613D46FF01001016108207D
:101E800020762068C06910F4407F204602D0FFF71A
:101E900091FF04E000F042F8204600F040F825767B
:101EA00020680169C943C90708D1C168C943C90786
:101EB00004D1891E0161204600F032F820680169D2
:101EC000C943090609D4C168C943090605D46FF09E
:101ED000800101612046FFF76AFE20680169C9435D
:101EE000490609D4C168C943490605D46FF04001C9
:101EF0000161204600F015F820680169C943890690
:101F00000BD4C168C943890607D46FF02001016171
:101F10002046BDE87040FFF74BBE70BD704770476C
:101F200070477047FEE700002DE9F043374887B05F
:101F30000024016841F080010160016801F0800126
:101F40000591016841F001010160016801F00101A2
:101F50000591016841F004010160016801F004018C
:101F60000591016841F002010160016801F0020180
:101F70000591016841F0100101600068244F00F0F4
:101F800010000590002220213846FEF717FDDFF8EB
:101F90008480002202214046FEF710FDDFF8789091
:101FA000002280214846FEF709FD102000901B48C2
:101FB0000226CDE9010669461948FEF723FC2020D8
:101FC00000900125CDE90154694638460394FEF797
:101FD00019FC0096CDE90154694640460394FEF78A
:101FE00011FC80200090CDE90154694648460394D5
:101FF000FEF708FC002211460A20FEF765FD0A20C4
:10200000FEF756FD07B0BDE8F0830000303802400F
:1020100000080240000402400010024000002110AD
:10202000000002400E4810B50C4901604FF4827167
:102030004160002102228160C0E903120122426155
:102040005202C0E906210162416281620A21C16235
:10205000FFF76EFC002800D0FEE710BD0030014005
:10206000201A002010B515488CB013490024C0E98F
:10207000001440F29311C0E902410461446101205F
:10208000CDE90004CDE902040F210491CDE905401A
:10209000CDE9074169460948FFF7F8FD00B1FEE7C1
:1020A000099409A905480A94FFF783FD002800D088
:1020B000FEE70CB010BD000000000140781A0020BF
:1020C00010B500220849094800F027FC08490748D4
:1020D00000F027FE0749054800F080FABDE81040EF
:1020E000024800F06BBE00001000002084170020A2
:1020F0004C01002000000020FEE770470907090E90
:10210000002806DA00F00F0000F1E02080F8141D2E
:10211000704700F1E02080F8001470470148FEF796
:1021200039BE0000940100202DE9F84F0F46C1EBA5
:10213000C70100EB810582460668D5E91301441A00
:10214000286C3835A04200D20446E01C4FEA9008C3
:1021500006EB471916E0441AA868A04200D20446CC
:10216000E01C4FEA90089AF810000090A3B2FAB26F
:102170003046E96801F0CEFBE8682044E860A869D1
:102180002044A861D9F8180980B2404505D9D5E99D
:102190000501814201D20028DDD134B90120D6F8F1
:1021A0003418B8408143C6F834180020BDE8F88FD1
:1021B000704738B50B46009204460022802100F09B
:1021C00008F8002804D0606D40F02000606503200E
:1021D00038BD2DE9F0411D4617460E460446DDF890
:1021E000188035E0681C33D02DB1FEF7EDFBA0EB75
:1021F0000800A8422CD32068416821F0E00141602A
:102200006068B0F5827F0BD1A068B0F5004F02D0B6
:10221000B0F5806F04D12068016821F040010160B1
:10222000A06AB0F5005F0AD1206801684DF6FF7220
:10223000114001602068016841F4005101600120F3
:1022400084F85100002084F850000320BDE8F0819C
:102250002068806836EA000004D00020B842C1D16E
:102260000020F3E70120F9E7704710B5FEF7B2FB55
:10227000BDE81040FFF797BC30B5244893B0002567
:10228000016841F080510160006800F080501190B9
:102290001F48016841F4804101600068022400F495
:1022A0008040119001200090000401908001CDE950
:1022B000064004200890A820CDE9090407200B90CF
:1022C0006846FFF7A7F900B1FEE70F20CDE90C043F
:1022D00080200E904001CDE90F0502210CA8FFF7E8
:1022E000CBF800B1FEE7FFF75FF94FF47A71B0FB6E
:1022F000F1F0FFF744FC0420FFF734FC0022114604
:10230000501EFEF7E1FB13B030BD00004038024024
:10231000007000401048016841F4700101600F48EE
:10232000016841F0010101600C4A0021083211608E
:1023300002680B4B1A400260031D0A4A1A600268C9
:1023400022F48022026005480C30016002495806E0
:10235000803908607047000088ED00E000380240D6
:10236000FFFFF6FE1030002410B50448FFF723FDF0
:10237000BDE810400248FFF71EBD0000781A00209B
:10238000B41A0020F0B50268234B244D244E254F8B
:10239000254C4FF0804C984209D0604507D0A842A8
:1023A00005D0B04203D0B84201D0A04204D122F0FF
:1023B000700E4A6842EA0E0298421BD0604519D05E
:1023C000A84217D0B04215D0B84213D0A04211D0C5
:1023D000164DA8420ED0164DA8420BD0154DA8425E
:1023E00008D0154DA84205D0144DA84202D0144D76
:1023F000A84203D122F44075CA682A4302608A6861
:10240000C2620A688262984201D0A04201D1096981
:10241000016301214161F0BD000001400004004062
:1024200000080040000C0040000401400040014052
:10243000004401400048014000180040001C0040DA
:102440000020004010B50123046A8B409C430462C5
:10245000036A8A401343036210BDD0F8180220B10A
:102460000021C0F81412084670470220704770B56A
:102470000546D0F8184200F01CFBC4F80C02D5F851
:10248000180248B1D5F81C12D4F80402CA6804F541
:1024900003719047002070BD022070BD70B50446E6
:1024A0000025812100F05EFA0121204600F05AFA51
:1024B0008221204600F056FAD4F8180250B1D4F820
:1024C0001C0204F50674406880472068FDF71FFF72
:1024D00000202060284670BD10B5D0E9864159B172
:1024E00094F80002FF2807D08B6894F80122214657
:1024F0009847FF2084F80002002010BD0A210180C7
:102500000048704774000020432101800048704754
:10251000C400002043210180004870478000002053
:102520004321018000487047080100202DE9F04157
:102530000446007C00254FF4007670B3402302224D
:102540008121204600F00CFB40230222012120467D
:1025500000F006FB082303228221204600F000FB46
:102560004FF40770FDF7A4FEC4F81802F0B1074657
:10257000D4F81C02006880470020C7F81402C7F88E
:102580001802207CD7F8042290B140230121204674
:1025900000F0F9FA2846BDE8F081FFE73346022251
:1025A0008121204600F0DCFA3346CEE70125F1E731
:1025B0003346EBE710B5D0F8181269B1027C002A57
:1025C000D1F8042205D04023012100F0DCFA0020DC
:1025D00010BD4FF40073F7E7022010BD0246022041
:1025E000002902D00020C2F81C127047D0F818024F
:1025F000C0F8041200207047D0F81802C0F810226A
:10260000C0F808120020704770B50646D0F818527E
:1026100008780C4610F0600121D0202927D1E288EB
:10262000AAB10006607807D5D6F81C128B68294637
:102630009847E288294617E085F80002A07985F8D6
:102640000102E2882946304600F038F80FE0D6F85B
:102650001C12607800228B682146984707E060785A
:102660000A2804D103490122304600F041F8002035
:1026700070BD00007000002010B5D0F81422526820
:102680009047002010BD134610B50A46002100F007
:102690007AFA002010BD134610B50A46002100F05A
:1026A0001CFB002010BD10B50446802100F0ECFAA0
:1026B0002046BDE81040002100F0E6BA10B5032323
:1026C000C0F80821C0F8F431C0F80C2113460A46BE
:1026D000002100F058FA002010BD10B5052100239C
:1026E000C0F8F4111A46194600F04DFA002010BD4A
:1026F00010B502238261C0F8F431C26113460A4664
:10270000002100F0EAFA002010BD10B504210023DA
:10271000C0F8F4111A46194600F0DFFA002010BD87
:1027200010B50A46024903A000F0D4F8004810BDD5
:102730008415002043444320436F6E6669670000A0
:1027400012200880004870473000002010B50A466B
:10275000024903A000F0BEF8004810BD8415002017
:1027600043444320496E74657266616365000000EE
:1027700004200880004870472C00002010B50A464D
:10278000024903A000F0A6F8004810BD84150020FF
:1027900053544D6963726F656C656374726F6E69D3
:1027A0006373000010B50A46024903A000F092F8D6
:1027B000004810BD8415002053544D333220566913
:1027C000727475616C20436F6D506F7274000000FD
:1027D00010B50A46024903A000F07CF8004810BD7D
:1027E00084150020303030303030303030303141DE
:1027F00000000000F8B5044648880D46010A082983
:102800004BD2DFE801F04A0409174A4A4048D4F89D
:102810001012207C0A6832E0207C02260028D4F8BE
:10282000140205D0C16A684688470146467041E0F7
:10283000816AF8E7C0B206282FD2DFE800F003086B
:102840000D12171CD4F81012207C4A6817E0D4F837
:102850001012207C8A6812E0D4F81012207CCA681A
:102860000DE0D4F81012207C0A6908E0D4F81012A8
:10287000207C4A6903E0D4F81012207C8A696946FA
:102880009047014616E0207C38B9D4F81402416B19
:1028900068468847F5E7207C20B129462046FFF7A7
:1028A00002FFF8BDD4F81402016B68468847014660
:1028B00007204870BDF800000028F2D0EA88002AFE
:1028C000EFD0824200D90246ADF800202046FFF743
:1028D0000FFFF8BD70B5002300281DD00446002569
:1028E00002E06D1CEDB2641C2678002EF9D10224A2
:1028F00004EB45041480CC545B1C0322CA5400240E
:102900005B1C06E0CA545B1CDAB28C54521CD3B276
:10291000401C0278002AF5D170BD10B580B1D0F806
:10292000143213B10023C0F8143209B1C0F81012E8
:10293000012180F8FC11027000F0C0F8002010BDE9
:10294000022010BD10B50024D0F82002FEF751F986
:1029500030B1012801D0022801D0022400E0012476
:10296000204610BD10B50024D0F82002FEF71FF954
:1029700030B1012801D0022801D0022400E0012456
:10298000204610BD2DE9F0411746044641B1D4F868
:10299000140242698AB394F8FC01032842D043E050
:1029A000D4F8F411002504F11400022933D1D0E940
:1029B00002639E4207D9F31A83609AB239462046D1
:1029C000FFF769FE12E04068B0FBF3F103FB110171
:1029D000A1B9984212D3D4F8F81188420ED200223D
:1029E00011462046FFF757FEC4F8F85100231A4657
:1029F0001946204600F0C7F80DE012E0D4F81402A2
:102A0000C16829B194F8FC01032801D12046884708
:102A10002046FFF762FE94F80002012804D184F8F2
:102A2000005201E0204690470020BDE8F08170B5DB
:102A30001546044641B1D4F8140282693AB394F8B9
:102A4000FC01032824D025E0D4F8F41104F58270A9
:102A500003291FD1D0E902218A420BD9531A83607E
:102A60000846834200D303469AB229462046FFF720
:102A70000AFE0FE0D4F81402016929B194F8FC01B0
:102A8000032801D1204688472046FFF73EFE01E09B
:102A900020469047002070BD0020704710B50121EE
:102AA00080F8FC11D0F81422017952689047002078
:102AB00010BDD0F82002FEF7C4B8000010B50178B0
:102AC00059BB17490222C1F8EC03C0F820124FF09D
:102AD000A0400860042048600020C1E90320C1E94B
:102AE0000502C86108624862C86208630846FEF7CA
:102AF000D3FB20B14FF4A5710AA000F020FF802184
:102B00000748FEF713F8402200210548FEF712F8A7
:102B1000802201210248FEF70DF8002010BD0000C0
:102B2000940100202E2E2F5372632F757362645F01
:102B3000636F6E662E6300000A0601F07F01D0F815
:102B40002002C1EBC10100EB810002D590F83A00F0
:102B5000704790F8FA0170470020704700207047D6
:102B600070B51D4613460024D0F820022A46FEF711
:102B700072F830B1012801D0022801D0022400E00F
:102B80000124204670BD10B50024D0F82002FEF7C5
:102B90008CF830B1012801D0022801D0022400E0D5
:102BA0000124204610BD70B5002204464023114682
:102BB000FFF7D6FF40252B46002280212046C4F88F
:102BC0001051FFF7CDFF0120256284F8FC01D4F8F5
:102BD000180228B1D4F8140221794268204690479F
:102BE000002070BD90F8FD1180F8FC1100207047A6
:102BF00010B590F8FC11032904D1D0F81412C9695A
:102C000001B18847002010BD01740020704710B545
:102C10000024D0F82002FEF7E9FB30B1012801D0F2
:102C2000022801D0022400E00124204610BD70B526
:102C3000044600F50270054600F05FF80120C4F874
:102C4000F401B4F80E02C4F8F80194F8080210F088
:102C50001F010AD001290DD0022910D000F08001F7
:102C6000204600F011F8002070BD2946204600F0F3
:102C7000AAF8F8E72946204600F08CF9F3E7294640
:102C8000204600F019F9EEE710B50024D0F8200234
:102C9000FEF72FF830B1012801D0022801D002241C
:102CA00000E00124204610BD10B50024D0F8200219
:102CB000FEF7B5FB30B1012801D0022801D0022473
:102CC00000E00124204610BD90F8FC1180F8FD11B1
:102CD000042180F8FC110020704710B50024D0F8C2
:102CE0002002FEF736F830B1012801D0022801D0C9
:102CF000022400E00124204610BD0A7802704A78C0
:102D000042708A78CB7802EB032242800A794B79B1
:102D100002EB032282808A79C97902EB0121C1800A
:102D200070470246002011B1C2F814127047022009
:102D3000704710B5D0F8142202241AB112689047D7
:102D400000B90024204610BD70B50E461A4D897892
:102D500004462970012928D894F8FC01022802D0E1
:102D6000032822D105E099B10320616084F8FC01B9
:102D700009E091B1606888420AD0C1B22046FFF7ED
:102D80007BFC297861602046FFF7D3FF02280CD036
:102D90002046BDE87040FFF7B8BC022084F8FC0173
:102DA00020466160FFF768FCF2E731462046BDE847
:102DB0007040FFF778BC00008401002010B5FFF7D9
:102DC00073FF002010BD2DE9F04100264B7801254E
:102DD00032460A2B43D2DFE803F03C584251420806
:102DE00005422A27FFF706FD63E004468888C8B934
:102DF000C888B8B9887800F07F0794F8FC010328E8
:102E000010D084F8FE7139462046FFF700FF2046B7
:102E1000FFF77BFC1FB1022084F8FC0149E084F835
:102E2000FC5146E020461AE0FFF78EFF41E0CB88D8
:102E3000012B14D190F8FC31022B02D0032B0ED1C0
:102E400004E08260012200F1080114E00122011D6A
:102E500011E090F8FC21022A04D0032A02D0FFF7E7
:102E600022FC26E0C560D0F8041209B10321C1603C
:102E7000022200F10C01FFF73BFC1AE004464888EF
:102E8000012816D1C4F804520BE0044690F8FC0166
:102E9000022801D00328C5D14888012809D1C4F8E7
:102EA0000422D4F814028268204690472046FFF797
:102EB0002CFC3046BDE8F08170B50D4604462878FC
:102EC00000260979C0F34110012806D06878A0B324
:102ED00001281FD003283FD107E0D4F81402294667
:102EE000826820469047002070BD94F8FC010228BB
:102EF00017D003282CD1688828B921B1802902D0A5
:102F00002046FFF7C1FED4F8140229468268204605
:102F1000904713E094F8FC01022802D0032817D14F
:102F200003E0C9B180291BD116E06888A0B9480622
:102F300004D02046FFF706FDE5E703E02046FFF753
:102F4000E4FB09E094F8FC01022807D003280BD029
:102F500029462046FFF7A7FB304670BD4806FBD048
:102F60002046FFF791FEF7E7080601F07F0004EB2B
:102F7000001501D5143501E005F582752046FFF7EF
:102F8000DBFD00B101202860022229462046FFF720
:102F9000AFFBE1E770B5054690F8FC010C4603284D
:102FA0000DD1207901280AD8D5F814028268284664
:102FB0009047E08830B92846FFF7A7FB02E0284693
:102FC000FFF771FB002070BD30B54C781D4B01221E
:102FD0000D78AA40012CD0F81C4818D044EA0242CF
:102FE000C0F81C280A7800EB4210D0F8002B12041D
:102FF0000BD4D0F8002B0C89C4F30A042243C978FF
:1030000043EA81410A43C0F8002B002030BD92B250
:103010001443C0F81C480C7800EB4410D0F8002989
:103020001204F2D4D0F800290D89C5F30A052A4309
:10303000C978890441EA84510A431A43C0F8002937
:10304000E3E7000000800010D0F800196FF30A01D8
:10305000C0F80019D0F80818C1F34101022905D1C0
:10306000D0F8001941F00301C0F80019D0F8041895
:1030700041F48071C0F804180020704770B5044610
:10308000049D06990D9801290CD0E06840F040009D
:10309000E060204600F028F84FF48030A063012D56
:1030A00016D01DE0A16B21F48031A163E1680D4AC7
:1030B0001140E160E16821F44011E160012803D191
:1030C000E06840F48010E060204600F00DF8E6E78C
:1030D000A06840F00600A060A06840F02000A0605A
:1030E000002070BDBFFFBDFF01220C4902E0521C51
:1030F0008A420BD80369002BF9DA026942F0010217
:103100000261012204E0521C8A4201D90320704767
:103110000369DB07F7D1002070470000400D030072
:10312000F0B50D4604464F780126F206D3002D492E
:10313000287804EB4010012F14D0D0F8007B27F43E
:103140000047C0F8007B287804EB4010C0F8002B43
:10315000287804EB4010C0F8003B01202A7804EBEB
:1031600042122BE0D0F8007927F40047C0F800792C
:10317000287804EB4010C0F80029287804EB4010B0
:10318000C0F8003901202A7804EB421202E0401C0A
:10319000884211D8D2F808395B00F8D410212046B3
:1031A00000F024FBD4F81C0829788E40B1B2884383
:1031B00014E0401C884201D90320F0BDD2F8083B3E
:1031C000DB06F6D4D4F8040840F48060C4F80408A0
:1031D000D4F81C0829788E4020EA0640C4F81C0860
:1031E0000020F0BD400D030010B5D0F8041821F008
:1031F0000201C0F804180320FDF7E4FA002010BD16
:1032000010B5D0F8041841F00201C0F804180320EA
:10321000FDF7D8FA002010BD2DE9F0470E46044610
:10322000DDE90A0A0025DDF83C80089F5FEA080115
:10323000A16B11D041F40021A1634FF00009C4F843
:10324000009ED4F80018C4F80018012807D0D4F85C
:10325000000840F0030007E041F40011ECE7D4F867
:1032600000080BB140F00100C4F80008102120460E
:1032700000F0BCFA204600F0A9FA4846C4F81098BD
:10328000C4F814984FF0FF31C4F81818C4F81C980B
:103290004FF0904CFF230FE004EB4511D1F80029CB
:1032A000002A02DAC1F800C901E0C1F80009C1F83A
:1032B0001009C1F808396D1CAE42EDD800210FE0AD
:1032C00004EB4112D2F8005B002D02DAC2F800CB09
:1032D00001E0C2F8000BC2F8100BC2F8083B491C11
:1032E0008E42EDD8D4F8101821F48071C4F810186B
:1032F000012F0AD11449C4F83018D4F83018134AF1
:103300001143C4F83018D4F83018A0616FF0804031
:1033100060611FB9A06940F01000A061A0690C496C
:103320000843A061BAF1000F03D0A06940F0080083
:10333000A061B8F1010F03D1A06906490843A0615B
:103340000020BDE8F08700000001800003000100BC
:1033500000383C8004000040816821F00101816058
:103360000020704730B54D784D4C0B7800EB43137F
:10337000012D28D0D3F8105B6FF31205C3F8105B52
:103380000B7800EB4313D3F8105B2540C3F8105BB8
:103390004B690BB18B684B610B7800EB4313D3F88F
:1033A000104B44F40024C3F8104B0B7800EB43138C
:1033B000D3F8104B8D68C5F312052C43C3F8104B9E
:1033C000012A5CD061E04D69002DD3F810593BD043
:1033D0006FF31205C3F810590B7800EB4313D3F8C1
:1033E00010592540C3F810594C698B689C4200D98C
:1033F0004B610B7800EB4313D3F8104944F40024DD
:10340000C3F810490B7800EB4313D3F810494D690A
:10341000C5F3120554EA0504C3F810490B7800EB14
:103420004313D3F8004944F00444C3F80049012A87
:103430001ED04A6912B3D0F834280B780121994084
:103440000A43C0F8342829E02540C3F810590B7806
:1034500000EB4313D3F8104944F40024C3F8104997
:103460000B7800EB4313D3F810496FF31204D3E742
:103470000A69097800EB4110C0F814290EE00B78B6
:1034800000EB4313CA68C3F8142B097800EB411012
:10349000D0F8001B41F00441C0F8001B002030BDF3
:1034A000FFFF07E00023C0F8103BD0F8103B43F4C7
:1034B0000023C0F8103BD0F8103B43F01803C0F8CD
:1034C000103BD0F8103B43F0C043C0F8103B01293B
:1034D00005D1C0F8142B4FF08021C0F8001B00204C
:1034E00070474B780A7800EB4212012B0BD0D2F8D0
:1034F000003B23F40013C2F8003BCA78032A17D01C
:10350000022A15D01DE0D2F8003923F40013C2F8C6
:103510000039CA78032A01D0022A12D1097800EBB7
:103520004110D0F8001941F08051C0F8001908E0AE
:10353000097800EB4110D0F8001B41F08051C0F831
:10354000001B002070474B780A7800EB4212012BD9
:1035500014D0D2F8003B002B05DBD2F8003B23F05F
:103560008043C2F8003B097800EB4110D0F8001B03
:1035700041F40011C0F8001B00207047D2F8003958
:10358000002B05DBD2F8003923F08043C2F8003964
:10359000097800EB4110D0F8001941F40011C0F88F
:1035A0000019E9E778B54E786FF06045834C0B78E9
:1035B00000EB4313012E2FD0D3F8106B6FF31206DC
:1035C000C3F8106B0B7800EB4313D3F8106B264055
:1035D000C3F8106B4B69002B7DD08C6823445B1EB5
:1035E000B3FBF4F39BB20C7800EB4414D4F8106BEB
:1035F00005EAC3452E43C4F8106B0C7800EB441465
:10360000D4F8105B8E685E43C6F312031D43C4F802
:10361000105B012A73D0B2E04E6966B3D3F810692B
:103620006FF31206C3F810690B7800EB4313D3F85D
:1036300010692640C3F810694C698B681C44641EED
:10364000B4FBF3F305EAC3440B7800EB4313D3F860
:1036500010592C43C3F810490B7800EB4313D3F8EF
:1036600010494D69C5F312052C43C3F81049CB78B6
:10367000012B16D027E0D3F810592540C3F8105974
:103680000B7800EB4313D3F8104944F40024C3F83B
:1036900010490B7800EB4313D3F810496FF3120471
:1036A0000FE00B7800EB4313D3F8104924F0C0442B
:1036B000C3F810490B7800EB4313D3F8104944F0DA
:1036C0000054C3F81049012A12D0CB78012B17D02F
:1036D0004B692BB300E037E0D0F834380D78012483
:1036E000AC402343C0F83438CB78012B08D017E026
:1036F0000C7800EB44140B69C4F81439F4E738E093
:10370000D0F80838DB050B7800EB4313D3F80049F9
:1037100002D444F0005401E044F08054C3F800495E
:103720000B7800EB4313D3F8004944F00444C3F88A
:103730000049CB78012B3ED100928A8A93B20A7855
:10374000C96800F0E7F836E00B7800EB4313D3F8D4
:10375000104B8D68C5F312052C43C3F8104B0B7842
:1037600000EB4313D3F8104B44F40024C3F8104B80
:103770004FE70B7800EB4313CA68C3F8142BCA78E1
:10378000012A0FD1D0F80828D2050A7800EB42129E
:10379000D2F8003B02D443F0005301E043F08053E1
:1037A000C2F8003B097800EB4110D0F8001B41F053
:1037B0000441C0F8001B002078BD0000FFFF07E0B7
:1037C000816841F0010181600020704700211022D2
:1037D0000261054A491C914201D9032070470369DF
:1037E000DB06F7D400207047400D030000222023A1
:1037F00043EA811101610549521C8A4201D9032023
:10380000704703699B06F7D400207047400D030002
:103810000021D0F8082812F0060F15D0D0F808289B
:10382000C2F34102012A0CD0D0F80828C2F34102A9
:10383000032A06D0D0F80808C0F34100022802D0BD
:1038400002E0032100E0022108467047406900F0D1
:1038500001007047D0F81818D0F81C08084080B252
:103860007047D0F81818D0F81C080840000C7047B2
:10387000D0F81038D0F83428CA4002F0010243EAE8
:10388000C21200EB4110D0F808091040704700EB5D
:103890004111D1F8081BD0F814080840704741695D
:1038A00080690840704710B503460020D21C92087A
:1038B00003F5805303E01C6841F8044B401C904220
:1038C000F9D3084610BD10B5C26822F0C042C260EC
:1038D000012901D021B107E0C16841F0005102E0A7
:1038E000C16841F08041C1603220FCF76BFF0020CD
:1038F00010BDD0F8002822F4FE62C0F80028D0F8ED
:1039000000284FF4FE6303EA01110A43C0F80028BF
:103910000020704730B50024039D6DB9DB1C9B0867
:1039200000EB023000F5805004E000BF51F8042B9A
:103930000260641C9C42F9D3002030BDFEE7FEE724
:1039400030B588420AD80023054C05E0255C401CB0
:10395000D5545B1C80B29BB28842F7D130BD0000C9
:10396000F01A00202DE9F8430501103D06464FF0FE
:103970001F084FF4C8791C4C471C2FE01B48406AB5
:10398000608060888008A080A188E069884201DDAD
:10399000002103E0A188884220DA0121304600F0AE
:1039A00023FEE9B2102364220020CDF8008000F04D
:1039B0003BFF0021304600F02FF84846FCF702FF9D
:1039C000E9B2102364220020CDF8008000F02CFF23
:1039D0000121304600F020F8A088E061A069B842DB
:1039E000CCD1BDE8F8830000440000200000014075
:1039F0000849012807D0022807D0032807D0042847
:103A000000D14869704788687047C868704708697E
:103A100070470000440000202DE9F8430B4604469F
:103A20000B250C22FFF7E4FF2401103C4FF4FC6748
:103A30001F2826D2DFE800F02510273E566E869E0E
:103A4000B6CCF9F7F6F5F4F3F2F1F0EFEEEDECEBBE
:103A5000EAE9E8E7E6E5E400DFF8AC95002612FBCA
:103A600003F800BF09EB060018F8002032B1F00699
:103A7000E1B2000E1023009700F02EFE761CAE423D
:103A8000F0DBBDE8F883DFF88095002609F128090E
:103A900012FB03F809EB060018F8002032B1F0061B
:103AA000E1B2000E1023009700F016FE761CAE4225
:103AB000F0DBE6E7DFF85095002609F1500912FB2C
:103AC00003F800BF09EB060018F8002032B1F00639
:103AD000E1B2000E1023009700F0FEFD761CAE420E
:103AE000F0DBCEE7DFF82095002609F1780912FB1C
:103AF00003F800BF09EB060018F8002032B1F00609
:103B0000E1B2000E1023009700F0E6FD761CAE42F5
:103B1000F0DBB6E7DFF8F094002609F1A00912FB0C
:103B200003F800BF09EB060018F8002032B1F006D8
:103B3000E1B2000E1023009700F0CEFD761CAE42DD
:103B4000F0DB9EE7DFF8C094002609F1C80912FBFC
:103B500003F800BF09EB060018F8002032B1F006A8
:103B6000E1B2000E1023009700F0B6FD761CAE42C5
:103B7000F0DB86E7DFF89094002609F1F00912FBEC
:103B800003F800BF09EB060018F8002032B1F00678
:103B9000E1B2000E1023009700F09EFD761CAE42AD
:103BA000F0DB6EE7DFF86494002612FB03F800BF39
:103BB00009EB060018F8002032B1F006E1B2000E61
:103BC0001023009700F088FD761CAE42F0DB58E72A
:103BD000DFF83894002609F1280912FB03F800BF2A
:103BE00009EB060018F8002032B1F006E1B2000E31
:103BF0001023009700F070FD761CAE42F0DB40E72A
:103C0000ECE1D5E1BCE1A3E18AE171E158E13FE1FA
:103C100028E10FE1F6E0DDE0C4E0ABE092E07BE01C
:103C200062E049E030E017E0FFE7DFF8E0930026CC
:103C300009F1500912FB03F809EB060018F80020FF
:103C400032B1F006E1B2000E1023009700F044FDFF
:103C5000761CAE42F0DB14E7DFF8B093002609F1E2
:103C6000780912FB03F800BF09EB060018F80020E2
:103C700032B1F006E1B2000E1023009700F02CFDE7
:103C8000761CAE42F0DBFCE6DFF88093002609F1FB
:103C9000A00912FB03F800BF09EB060018F800208A
:103CA00032B1F006E1B2000E1023009700F014FDCF
:103CB000761CAE42F0DBE4E6DFF85093002609F113
:103CC000C80912FB03F800BF09EB060018F8002032
:103CD00032B1F006E1B2000E1023009700F0FCFCB8
:103CE000761CAE42F0DBCCE6DFF82093002609F12B
:103CF000F00912FB03F800BF09EB060018F80020DA
:103D000032B1F006E1B2000E1023009700F0E4FC9F
:103D1000761CAE42F0DBB4E6DFF8F492002612FB2C
:103D200003F800BF09EB060018F8002032B1F006D6
:103D3000E1B2000E1023009700F0CEFC761CAE42DC
:103D4000F0DB9EE6DFF8C892002609F1280912FB95
:103D500003F800BF09EB060018F8002032B1F006A6
:103D6000E1B2000E1023009700F0B6FC761CAE42C4
:103D7000F0DB86E6DFF89892002609F1500912FB85
:103D800003F800BF09EB060018F8002032B1F00676
:103D9000E1B2000E1023009700F09EFC761CAE42AC
:103DA000F0DB6EE6DFF86892002609F1780912FB75
:103DB00003F800BF09EB060018F8002032B1F00646
:103DC000E1B2000E1023009700F086FC761CAE4294
:103DD000F0DB56E6DFF83892002609F1A00912FB65
:103DE00003F800BF09EB060018F8002032B1F00616
:103DF000E1B2000E1023009700F06EFC761CAE427C
:103E0000F0DB3EE6DFF80892002609F1C80912FB54
:103E100003F800BF09EB060018F8002032B1F006E5
:103E2000E1B2000E1023009700F056FC761CAE4263
:103E3000F0DB26E6DFF8D891002609F1F00912FB45
:103E400003F800BF09EB060018F8002032B1F006B5
:103E5000E1B2000E1023009700F03EFC761CAE424B
:103E6000F0DB0EE6DFF8AC91002612FB03F800BF92
:103E700009EB060018F8002032B1F006E1B2000E9E
:103E80001023009700F028FC761CAE42F0DBF8E52A
:103E9000DFF88091002609F1280912FB03F800BF22
:103EA00009EB060018F8002032B1F006E1B2000E6E
:103EB0001023009700F010FC761CAE42F0DBE0E52A
:103EC000DFF85091002609F1500912FB03F800BFFA
:103ED00009EB060018F8002032B1F006E1B2000E3E
:103EE0001023009700F0F8FB761CAE42F0DBC8E52B
:103EF000DFF82091002609F1780912FB03F800BFD2
:103F000009EB060018F8002032B1F006E1B2000E0D
:103F10001023009700F0E0FB761CAE42F0DBB0E52A
:103F2000DFF8F090002609F1A00912FB03F800BFAA
:103F300009EB060018F8002032B1F006E1B2000EDD
:103F40001023009700F0C8FB761CAE42F0DB98E52A
:103F5000DFF8C090002609F1C80912FB03F800BF82
:103F600009EB060018F8002032B1F006E1B2000EAD
:103F70001023009700F0B0FB761CAE42F0DB80E52A
:103F8000DFF89090002609F1F00912FB03F800BF5A
:103F900009EB060018F8002032B1F006E1B2000E7D
:103FA0001023009700F098FB761CAE42F0DB68E52A
:103FB000DFF86490002612FB03F800BF09EB06004F
:103FC00018F8002032B1F006E1B2000E102300977D
:103FD00000F082FB761CAE42F0DB52E5002612FBBD
:103FE00003F8B9460C4F2837B91918F801203AB12F
:103FF000F006E1B2000E1023CDF8009000F06CFB4B
:10400000761CAE42F0DB3CE5D81E0020F01F0020FD
:1040100008210020202200203823002010B500F0C5
:1040200033FA954C04F5A662208881B20120FFF78F
:1040300087FCA08804F5AB6281B22088401C80B266
:10404000FFF77EFC208904F5B06281B2A088401C95
:1040500080B2FFF775FCA08904F5B56281B22089B2
:10406000401C80B2FFF76CFC208A04F5BA6281B272
:10407000A089401C80B2FFF763FCA08A04F5BF62F0
:1040800081B2208A401C80B2FFF75AFC208B04F5D5
:10409000C46281B2A08A401C80B2FFF751FCA08BA1
:1040A00004F5C96281B2208B401C80B2FFF748FC46
:1040B000208C04F5CE6281B2A08B401C80B2FFF749
:1040C0003FFCA08C04F5D36281B2208C401C80B2EE
:1040D000FFF736FC208D04F5D86281B2A08C401C1D
:1040E00080B2FFF72DFCA08D04F5DD6281B2208D3A
:1040F000401C80B2FFF724FC208E04F5E26281B2FE
:10410000A08D401C80B2FFF71BFCA08E04F5DD6281
:1041100081B2208E401C80B2FFF712FC208F04F584
:10412000E76281B2A08E401C80B2FFF709FCA08F2D
:1041300004F5EC6281B2208F401C80B2FFF700FCD6
:10414000B4F8400004F5F16281B2A08F401C80B247
:10415000FFF7F6FBB4F8440004F5F66281B2B4F858
:104160004000401C80B2FFF7EBFBB4F8480004F5B8
:10417000FB6281B2B4F84400401C80B2FFF7E0FB60
:10418000B4F84C0004F5006281B2B4F84800401C59
:1041900080B2FFF7D5FBB4F8500004F6280281B2D4
:1041A000B4F84C00401C80B2FFF7CAFBB4F85400CE
:1041B00004F5056281B2B4F85000401C80B2FFF7EC
:1041C000BFFBB4F8580004F6780281B2B4F854008A
:1041D000401C80B2FFF7B4FBB4F85C0004F50A623F
:1041E00081B2B4F85800401C80B2FFF7A9FBB4F8C4
:1041F000600004F6C80281B2B4F85C00401C80B2D2
:10420000FFF79EFBB4F8640004F50F6281B2B4F8C6
:104210006000401C80B2FFF793FBB4F8680004F61E
:10422000181281B2B4F86400401C80B2FFF788FB1A
:10423000B4F86C0004F5146281B2B4F86800401C54
:1042400080B2FFF77DFBB4F8700004F6681281B20B
:10425000B4F86C00401C80B2FFF772FBB4F8740035
:1042600004F5196281B2B4F87000BDE81040401C3A
:1042700080B2FFF765BB0000A819002008B5002236
:1042800010217148FCF79AFB704C0025A561FCF7E2
:10429000A9FBFDF7F1FFFDF747FEFDF711FFFDF765
:1042A000C1FEFDF7DFFE6B4E6948306042F20F70D1
:1042B000C6E901054CF2F520C6E903053046FDF7D5
:1042C000A0FC00B1FEE7634818213C38FDF758FD1B
:1042D0006048FDF7CFFC00F0CDFA3068406A2062FC
:1042E000002000F0E6F91F2610235BA20021142015
:1042F000009600F03FFAF7020C2359A21021252066
:10430000009700F037FA0C2356A21C2108200097D2
:1043100000F030FA28210C2356A20846009700F03E
:1043200029FA0C2354A234210820009700F022FA25
:10433000484F3C3738782128FCD1FFF76FFEA06941
:1043400005287ED2DFE800F003122C466000002032
:1043500000F098F94FF448784046FCF733FA012012
:1043600000F090F94046FCF72DFAE3E7A088E06101
:104370000021102364220846009600F055FA00211F
:104380000120FFF749FB0120FFF7ECFA0021102381
:1043900064220846009500F047FA002101204CE015
:1043A000A088E0611023642219460020009600F0E6
:1043B0003BFA00210220FFF72FFB0220FFF7D2FA81
:1043C0001023642219460020009500F02DFA0021E8
:1043D000022032E0A088E061102364222021002026
:1043E000009600F021FA00210320FFF715FB0320BF
:1043F000FFF7B8FA1023642220210020009500F076
:1044000013FA0021032018E0A088E0611023642241
:1044100030210020009600F007FA00210420FFF769
:10442000FBFA0420FFF79EFA1023642230210020BB
:10443000009500F0F9F900210420FFF7EDFA79E783
:10444000FFE7A56176E70000000C02404400002071
:1044500000440140B41A00205043496E666F0000CA
:1044600042790000526166616C204164616D736B3A
:1044700069000000260000004164616D204F6C73EC
:104480007A6577736B69000030B5554A554C00204A
:1044900013780146A4F5A472655C9D4240D1E8B34F
:1044A000012845D0022846D0032847D0042848D008
:1044B000052849D006284AD007284BD008284CD0D8
:1044C00009284DD00A284ED00B284FD00C2850D0A8
:1044D0000D2851D00E2852D00F2853D0102854D078
:1044E000112855D0122856D0132857D0142858D048
:1044F000152859D016285AD017285BD018285CD018
:1045000019285DD01A285ED01B285FD01C2860D0E7
:104510001D2861D01E2807D11F2000E005E091670B
:10452000491CB1F57A7FB7DD30BD01201160F7E796
:1045300002205160F4E703209160F1E70420D1608C
:10454000EEE705201161EBE706205161E8E707205F
:104550009161E5E70820D161E2E709201162DFE718
:104560000A205162DCE70B209162D9E70C20D1626E
:10457000D6E70D201163D3E70E205163D0E70F205B
:104580009163CDE71020D163CAE711201164C7E71A
:1045900012205164C4E713209164C1E71420D16450
:1045A000BEE715201165BBE716205165B8E7172057
:1045B0009165B5E71820D165B2E719201166AFE71C
:1045C0001A205166ACE71B209166A9E71C20D16632
:1045D000A6E71D201167A3E71E205167A0E7000092
:1045E00044000020F01A002070B5254AD2E90443A7
:1045F000D2E9026541B1012817D0022818D003285A
:1046000019D004281AD01BE0012806D0022806D0B1
:10461000032806D0042806D012E0761C06E06D1CA4
:1046200007E0641C08E05B1C09E0761E966007E06A
:104630006D1ED56004E0641E146101E05B1E5361D1
:1046400001201E211F2E01D016B102E0906000E073
:1046500091601F2D01D015B102E0D06000E0D16063
:104660001F2C01D014B102E0106100E01161536908
:104670001F2B03D0002B00D1516170BD506170BD64
:104680004400002010B50446002000F012F8214636
:104690000120FFF7C1F921460220FFF7BDF92146AD
:1046A0000320FFF7B9F92146BDE810400420FFF7C9
:1046B000B3B970B5064600250024E9B2E0B232462F
:1046C00000F086F8641CA4B2602CF6D36D1CADB269
:1046D000402DF1D370BD00002DE9F05F1F469346D9
:1046E0000C468246894660283DD2402C3BD20025AC
:1046F00037E00C2F02D0102F0BD012E01B490BEB30
:104700004B0001EB80002844A0F5805090F8806EAB
:1047100007E0174901EB0B102844A0F5805090F8F2
:10472000006E4FF00008300604D5214650460A9A24
:1047300000F04EF87006641C060EE4B2A4EB09000B
:10474000B84205D10AF101004C4600F0FF0A06E02C
:1047500008F1010000F0FF08B8F1080FE3D36D1C69
:10476000EDB2BD42C5D3BDE8F09F0000264A000867
:104770009A4E00082DE9F84F1F46DDF828A016468E
:104780000D460446602821D2402D1FD26020A0EBA8
:104790005708C7F140093078002817D0A04508DA3B
:1047A000E8190024C5B2A94503DA00252846FFF719
:1047B00080FFCDF800A032783B4629462046FFF71F
:1047C0008BFF04EB5700C4B2761CE4E7BDE8F88F1A
:1047D00070B514460D460646602823D2402D21D2DE
:1047E0000021152000F0F2F80021304600F0EEF82C
:1047F00000215F2000F0EAF80021752000F0E6F8C3
:104800000021284600F0E2F800213F2000F0DEF809
:10481000200A012100F0DAF8E0B2BDE87040012181
:1048200000F0D4B870BD00002DE9F05F9A46DDF8C5
:1048300028B0174689460646602818D2B9F1400FBD
:1048400015D2002511E0002409EB050809E000BF9E
:10485000301908F0FF01C0B25A46FFF7B9FF641CD7
:10486000A4B2BC42F4DB6D1CADB25545EBD3BDE840
:10487000F09F000010B5012280215248FCF79EF8FD
:10488000012220215048FCF799F80021AE2000F0C9
:104890009DF80021812000F099F80021FF2000F010
:1048A00095F80021822000F091F80021FF2000F00F
:1048B0008DF80021832000F089F80021FF2000F00E
:1048C00085F80021872000F081F80021062000F003
:1048D0007DF800218A2000F079F80021642000F0A2
:1048E00075F800218B2000F071F80021782000F08D
:1048F0006DF800218C2000F069F80021642000F0A0
:1049000065F80021A02000F061F80021722000F07D
:104910005DF80021A12000F059F80021084600F0C0
:1049200055F80021A22000F051F80021084600F0BF
:104930004DF80021A42000F049F80021A82000F043
:1049400045F800213F2000F041F80021AD2000F0A3
:104950003DF800218E2000F039F80021B02000F051
:1049600035F80021084600F031F80021B12000F0B0
:104970002DF80021312000F029F80021B32000F0AB
:1049800025F80021F02000F021F80021BB2000F0E4
:104990001DF800213A2000F019F80021BE2000F097
:1049A00015F800213E2000F011F800212E2000F023
:1049B0000DF80021AF2000F009F8BDE810400020FC
:1049C000FFF777BE001002400008024073B5104C9C
:1049D00009B1012200E0002202212046FBF7EEFF90
:1049E0000C4D002220212846FBF7E8FF4FF47A7394
:1049F000012269460848FDF701F8012220212846D6
:104A0000FBF7DCFF012202212046FBF7D7FF7CBD2C
:104A10000004024000080240201A00204FF04070BD
:104A2000E1EE100A704700000000000000000000E6
:104A30000000000000003F400000000000000000F7
:104A40003000400030004000000009000BC03D0075
:104A50000BC03D00090018C024407FE02240318097
:104A60000000180024C01B000D803240018003802C
:104A70001C4027401C8007400040100060000000E0
:104A80000000000000000000000000001F80204027
:104A900040200000402020401F800000000009004E
:104AA00006001F80060009000000040004003F808B
:104AB000040004000000001000600000000000007E
:104AC00000000400040004000400040000000000D2
:104AD00000400000000000000000002001C00600AF
:104AE0003800400000001F802040204020401F80F0
:104AF0000000000010403FC000400000000018C04F
:104B000021402240244018400000108020402440D2
:104B100024401B80000002000D0011003FC0014036
:104B200000003C80244024402440238000001F805B
:104B3000244024403440038000003000200027C07F
:104B40003800200000001B802440244024401B80AB
:104B500000001C0022C0224022401F8000000000F4
:104B60000000084000000000000000000000046099
:104B7000000000000000000004000A001100208076
:104B80004040090009000900090009000000000078
:104B90004040208011000A0004001800200023403B
:104BA0002400180000001F802040274029401F409B
:104BB0000000004007C039000F0001C00040204045
:104BC0003FC0244024401B8000001F802040204024
:104BD00020403080000020403FC0204020401F8007
:104BE000000020403FC024402E4030C00000204044
:104BF0003FC024402E00300000000F0010802040F5
:104C000022403380020020403FC0040004003FC027
:104C10002040204020403FC0204020400000006055
:104C2000202020203FC02000200020403FC0244002
:104C30000B0030C0204020403FC0204000400040DA
:104C400000C03FC03C0003C03C003FC0000020400B
:104C50003FC00C4023003FC020001F802040204068
:104C600020401F80000020403FC024402400180046
:104C700000001F802140214020E01FA000002040B4
:104C80003FC02440260019C0004018C024402440E2
:104C9000224031800000300020403FC020403000E2
:104CA000000020003F80004000403F8020002000A6
:104CB0003E0001C0070038002000380007C03C005B
:104CC00007C038000000204039C0060039C020402D
:104CD00000002000384007C038402000000030406D
:104CE00021C02640384020C00000000000007FE0C6
:104CF000402040200000000070000C0003800040B5
:104D000000000000402040207FE000000000000084
:104D100020004000200000000000001000100010E3
:104D20000010001000100000000040000000000013
:104D30000000000002800540054003C00040200044
:104D40003FC0044004400380000000000380044092
:104D500004400640000000000380044024403FC09F
:104D600000400000038005400540034000000000B3
:104D700004401FC0244024402000000002E00550F1
:104D800005500650042020403FC00440040003C0EA
:104D900000400000044027C0004000000000001058
:104DA0000010041027E00000000020403FC0014038
:104DB000070004C00440204020403FC000400040A5
:104DC000000007C0040007C0040003C00000044046
:104DD00007C00440040003C00040000003800440FA
:104DE000044003800000041007F0045004400380D6
:104DF0000000000003800440045007F0001004404D
:104E000007C0024004000400000000000640054006
:104E1000054004C00000000004001F800440004062
:104E20000000040007800040044007C00040040068
:104E3000070004C0018006000400060001C007004E
:104E400001C006000000044006C0010006C0044086
:104E500000000410071004E00180060004000000B8
:104E6000044005C0064004400000000000000400AB
:104E70007BE040200000000000000000FFF0000088
:104E80000000000040207BE0040000000000400023
:104E900080004000200020004000000000000000D2
:104EA0000000000000000000000000000000000002
:104EB0001FCC000C000000000000000008003000C3
:104EC00060000800300060000000022003FC1E208B
:104ED000022003FC1E200220000000000E18110416
:104EE0003FFF10840C78000000000F0010840F3882
:104EF00000C0077818840078000000780F8410C480
:104F000011240E9800E40084000808006800700076
:104F10000000000000000000000000000000000091
:104F200007E018182004400200000000400220049E
:104F3000181807E000000000000002400240018055
:104F40000FF00180024002400000008000800080DD
:104F50000FF800800080008000000001000D000EAE
:104F60000000000000000000000000000080008041
:104F7000008000800080008000800000000C000C99
:104F80000000000000000000000000000006001803
:104F900000600180060018002000000007F00808EB
:104FA00010041004080807F00000000008040804BA
:104FB0001FFC000400040000000000000E0C101490
:104FC0001024104411840E0C000000000C18100472
:104FD0001104110412880C700000000000E003208E
:104FE000042408241FFC0024000000001F981084E3
:104FF00011041104108810700000000007F00888E8
:105000001104110418880070000000001C0010003A
:1050100010FC13001C001000000000000E381144AA
:105020001084108411440E38000000000700088C22
:1050300010441044088807F0000000000000000041
:10504000030C030C00000000000000000000000141
:105050000106000000000000000000000080014088
:105060000220041008081004000002200220022080
:105070000220022002200220000000001004080884
:105080000410022001400080000000000E00120009
:10509000100C106C10800F00000003E00C1813E4DB
:1050A000142417C4082807D000000004003C03C4DF
:1050B0001C40074000E4001C000410041FFC110405
:1050C000110411040E880070000003E00C18100495
:1050D0001004100410081C10000010041FFC100421
:1050E00010041004080807F0000010041FFC11044D
:1050F000110417C410040818000010041FFC110448
:10510000110017C010000800000003E00C18100484
:10511000100410441C780040000010041FFC108490
:105120000080008010841FFC100400001004100494
:105130001FFC100410040000000000030001100117
:1051400010011FFE10001000000010041FFC1104CD
:1051500003801464181C1004000010041FFC1004C9
:10516000000400040004000C000010041FFC1F00D9
:1051700000FC1F001FFC1004000010041FFC0C04A6
:10518000030000E010181FFC100007F008081004CE
:1051900010041004080807F0000010041FFC10841D
:1051A0001080108010800F00000007F008181024F5
:1051B0001024101C080A07F2000010041FFC110440
:1051C000110011C011300E0C000400000E1C11045F
:1051D0001084108410441C380000180010001004C3
:1051E0001FFC100410001800000010001FF810042D
:1051F0000004000410041FF8100010001E0011E04D
:10520000001C007013801C0010001FC0103C00E048
:105210001F0000E0103C1FC000001004180C1634E2
:1052200001C001C01634180C100410001C00130437
:1052300000FC13041C00100000000804101C106483
:10524000108413041C04101800000000000000006B
:105250007FFE4002400240020000000030000C00CF
:1052600003800060001C00030000000040024002B8
:1052700040027FFE0000000000000000000020004F
:10528000400040004000200000000001000100013B
:105290000001000100010001000100004000400089
:1052A0002000000000000000000000000098012421
:1052B00001440144014400FC000410001FFC00886C
:1052C00001040104008800700000000000700088E4
:1052D000010401040104008800000000007000883F
:1052E0000104010411081FFC0004000000F801443F
:1052F00001440144014400C800000000010401040D
:105300000FFC1104110411001800000000D601293F
:105310000129012901C90106000010041FFC0084B5
:1053200001000100010400FC000400000104190454
:1053300019FC00040004000000000000000300014C
:105340000101190119FE0000000010041FFC0024D7
:10535000004001B4010C010400000000100410041E
:105360001FFC0004000400000000010401FC010413
:10537000010001FC0104010000FC010401FC0084A7
:1053800001000100010400FC0004000000F8010419
:1053900001040104010400F80000010101FF00857F
:1053A0000104010400880070000000000070008803
:1053B00001040104010501FF00010104010401FCD5
:1053C00000840104010001800000000000CC0124E1
:1053D00001240124012401980000000001000100C3
:1053E00007F80104010400000000010001F80004B6
:1053F00000040004010801FC0004010001800170A8
:10540000000C001001600180010001F0010C00306F
:1054100001C00030010C01F0010000000104018C0A
:1054200000740170018C010400000101018101710F
:10543000000E001801600180010000000184010CD1
:10544000013401440184010C000000000000000050
:10545000000001003EFC400240020000000000008D
:105460000000FFFF000000000000000040024002BA
:105470003EFC010000000000000000006000800011
:1054800080004000400020002000000000000000DC
:10549000000001020304060708090000BC540008CC
:1054A0000000002094010000C40100088455000899
:1054B0009401002054820000200200081315071BED
:1054C000080F041A0B041A65041341271B08710402
:1054D0001A7D041AA5041AD1041A21041A4D0417BE
:1054E0000403090412011402020216408304405707
:1054F000260201020301725F190B1132023203020C
:1055000014045324F43B0A06272A40301C090243A2
:1055100047111CC03209321B01020B13052416105F
:1055200001052401100901042402020524061701C3
:1055300007058203081C1009047D320A1D070501B6
:1055400002432C070581070938442A40072A8107AE
:10555000112B0907440A2204440A16FF44132D257F
:1055600014089D241408092642081AD90C1A5B0451
:105570001A6F04C11A15281A09041A21045AFD1CAD
:045580003201721072
:040000050800018965
:00000001FF
